{
  "contractName": "Calc",
  "abi": [
    {
      "inputs": [
        {
          "internalType": "uint256",
          "name": "a",
          "type": "uint256"
        },
        {
          "internalType": "uint256",
          "name": "b",
          "type": "uint256"
        }
      ],
      "name": "myadd",
      "outputs": [
        {
          "internalType": "uint256",
          "name": "",
          "type": "uint256"
        }
      ],
      "stateMutability": "pure",
      "type": "function"
    },
    {
      "inputs": [
        {
          "internalType": "uint256",
          "name": "a",
          "type": "uint256"
        },
        {
          "internalType": "uint256",
          "name": "b",
          "type": "uint256"
        }
      ],
      "name": "mysub",
      "outputs": [
        {
          "internalType": "uint256",
          "name": "",
          "type": "uint256"
        }
      ],
      "stateMutability": "pure",
      "type": "function"
    },
    {
      "inputs": [
        {
          "internalType": "uint256",
          "name": "a",
          "type": "uint256"
        },
        {
          "internalType": "uint256",
          "name": "b",
          "type": "uint256"
        }
      ],
      "name": "mymul",
      "outputs": [
        {
          "internalType": "uint256",
          "name": "",
          "type": "uint256"
        }
      ],
      "stateMutability": "pure",
      "type": "function"
    },
    {
      "inputs": [
        {
          "internalType": "uint256",
          "name": "a",
          "type": "uint256"
        },
        {
          "internalType": "uint256",
          "name": "b",
          "type": "uint256"
        }
      ],
      "name": "mydiv",
      "outputs": [
        {
          "internalType": "uint256",
          "name": "",
          "type": "uint256"
        }
      ],
      "stateMutability": "pure",
      "type": "function"
    }
  ],
  "bytecode": "0x608060405234801561001057600080fd5b50610561806100206000396000f3fe608060405234801561001057600080fd5b506004361061004c5760003560e01c80635b53c17014610051578063632e1ae51461009d578063da8f4b5c146100e9578063f30a14d014610135575b600080fd5b6100876004803603604081101561006757600080fd5b810190808035906020019092919080359060200190929190505050610181565b6040518082815260200191505060405180910390f35b6100d3600480360360408110156100b357600080fd5b81019080803590602001909291908035906020019092919050505061019e565b6040518082815260200191505060405180910390f35b61011f600480360360408110156100ff57600080fd5b8101908080359060200190929190803590602001909291905050506101f2565b6040518082815260200191505060405180910390f35b61016b6004803603604081101561014b57600080fd5b81019080803590602001909291908035906020019092919050505061020f565b6040518082815260200191505060405180910390f35b6000610196828461022c90919063ffffffff16565b905092915050565b60006101ea826040518060400160405280601b81526020017f43616c633a20646570617373656d656e742064652074616d706f6e0000000000815250856102b29092919063ffffffff16565b905092915050565b6000610207828461037290919063ffffffff16565b905092915050565b600061022482846103fa90919063ffffffff16565b905092915050565b60008083141561023f57600090506102ac565b600082840290508284828161025057fe5b04146102a7576040517f08c379a000000000000000000000000000000000000000000000000000000000815260040180806020018281038252602181526020018061050b6021913960400191505060405180910390fd5b809150505b92915050565b600083831115829061035f576040517f08c379a00000000000000000000000000000000000000000000000000000000081526004018080602001828103825283818151815260200191508051906020019080838360005b83811015610324578082015181840152602081019050610309565b50505050905090810190601f1680156103515780820380516001836020036101000a031916815260200191505b509250505060405180910390fd5b5060008385039050809150509392505050565b6000808284019050838110156103f0576040517f08c379a000000000000000000000000000000000000000000000000000000000815260040180806020018281038252601b8152602001807f536166654d6174683a206164646974696f6e206f766572666c6f77000000000081525060200191505060405180910390fd5b8091505092915050565b600061043c83836040518060400160405280601a81526020017f536166654d6174683a206469766973696f6e206279207a65726f000000000000815250610444565b905092915050565b600080831182906104f0576040517f08c379a00000000000000000000000000000000000000000000000000000000081526004018080602001828103825283818151815260200191508051906020019080838360005b838110156104b557808201518184015260208101905061049a565b50505050905090810190601f1680156104e25780820380516001836020036101000a031916815260200191505b509250505060405180910390fd5b5060008385816104fc57fe5b04905080915050939250505056fe536166654d6174683a206d756c7469706c69636174696f6e206f766572666c6f77a2646970667358221220827012507d4187bf4aa5370ae3ab7f7e6f9d39ea88faa066327d36afaba38ea564736f6c634300060c0033",
  "immutableReferences": {},
  "source": "// SPDX-License-Identifier: MIT\nimport \"@openzeppelin/contracts/math/SafeMath.sol\";\npragma solidity ^0.6.0;\n\n// SafeMath usage demonstration\ncontract Calc {\n    using SafeMath for uint256;\n\n    function myadd(uint256 a, uint256 b) public pure returns (uint256) {\n        return a.add(b);\n    }\n\n    function mysub(uint256 a, uint256 b) public pure returns (uint256) {\n        return a.sub(b, \"Calc: depassement de tampon\");\n    }\n\n    function mymul(uint256 a, uint256 b) public pure returns (uint256) {\n        return a.mul(b);\n    }\n\n    function mydiv(uint256 a, uint256 b) public pure returns (uint256) {\n        return a.div(b);\n    }\n}\n\ncontract Counter {\n    using SafeMath for uint256;\n\n    uint256 private _counter;\n\n    function counter() public view returns (uint256) {\n        return _counter;\n    }\n\n    function inc(uint256 nb) public {\n        _counter = _counter.add(nb);\n    }\n}\n",
  "sourcePath": "/Users/itanis/Desktop/projets/web3-truffle/contracts/Calc.sol",
  "compiler": {
    "name": "solc",
    "version": "0.6.12+commit.27d51765.Linux.g++"
  },
  "schemaVersion": "3.3.1",
  "updatedAt": "2020-11-18T13:40:44.541Z",
  "devdoc": {
    "kind": "dev",
    "methods": {},
    "version": 1
  },
  "userdoc": {
    "kind": "user",
    "methods": {},
    "version": 1
  }
}