{
  "contractName": "Counter",
  "abi": [
    {
      "inputs": [],
      "name": "counter",
      "outputs": [
        {
          "internalType": "uint256",
          "name": "",
          "type": "uint256"
        }
      ],
      "stateMutability": "view",
      "type": "function"
    },
    {
      "inputs": [
        {
          "internalType": "uint256",
          "name": "nb",
          "type": "uint256"
        }
      ],
      "name": "inc",
      "outputs": [],
      "stateMutability": "nonpayable",
      "type": "function"
    }
  ],
  "bytecode": "0x608060405234801561001057600080fd5b5061016c806100206000396000f3fe608060405234801561001057600080fd5b50600436106100365760003560e01c806361bc221a1461003b578063812600df14610059575b600080fd5b610043610087565b6040518082815260200191505060405180910390f35b6100856004803603602081101561006f57600080fd5b8101908080359060200190929190505050610090565b005b60008054905090565b6100a5816000546100ae90919063ffffffff16565b60008190555050565b60008082840190508381101561012c576040517f08c379a000000000000000000000000000000000000000000000000000000000815260040180806020018281038252601b8152602001807f536166654d6174683a206164646974696f6e206f766572666c6f77000000000081525060200191505060405180910390fd5b809150509291505056fea264697066735822122092f905c0bc80026ea2aefe264651c80d5ed39f9da7ddc22e5d1dcad46dd9067b64736f6c634300060c0033",
  "immutableReferences": {},
  "source": "// SPDX-License-Identifier: MIT\nimport \"@openzeppelin/contracts/math/SafeMath.sol\";\npragma solidity ^0.6.0;\n\n// SafeMath usage demonstration\ncontract Calc {\n    using SafeMath for uint256;\n\n    function myadd(uint256 a, uint256 b) public pure returns (uint256) {\n        return a.add(b);\n    }\n\n    function mysub(uint256 a, uint256 b) public pure returns (uint256) {\n        return a.sub(b, \"Calc: depassement de tampon\");\n    }\n\n    function mymul(uint256 a, uint256 b) public pure returns (uint256) {\n        return a.mul(b);\n    }\n\n    function mydiv(uint256 a, uint256 b) public pure returns (uint256) {\n        return a.div(b);\n    }\n}\n\ncontract Counter {\n    using SafeMath for uint256;\n\n    uint256 private _counter;\n\n    function counter() public view returns (uint256) {\n        return _counter;\n    }\n\n    function inc(uint256 nb) public {\n        _counter = _counter.add(nb);\n    }\n}\n",
  "sourcePath": "/Users/itanis/Desktop/projets/web3-truffle/contracts/Calc.sol",
  "compiler": {
    "name": "solc",
    "version": "0.6.12+commit.27d51765.Linux.g++"
  },
  "schemaVersion": "3.3.1",
  "updatedAt": "2020-11-18T13:40:44.650Z",
  "devdoc": {
    "kind": "dev",
    "methods": {},
    "version": 1
  },
  "userdoc": {
    "kind": "user",
    "methods": {},
    "version": 1
  }
}