{
  "contractName": "GameLoot",
  "abi": [
    {
      "inputs": [
        {
          "internalType": "address",
          "name": "owner",
          "type": "address"
        }
      ],
      "stateMutability": "nonpayable",
      "type": "constructor"
    },
    {
      "anonymous": false,
      "inputs": [
        {
          "indexed": true,
          "internalType": "address",
          "name": "owner",
          "type": "address"
        },
        {
          "indexed": true,
          "internalType": "address",
          "name": "approved",
          "type": "address"
        },
        {
          "indexed": true,
          "internalType": "uint256",
          "name": "tokenId",
          "type": "uint256"
        }
      ],
      "name": "Approval",
      "type": "event"
    },
    {
      "anonymous": false,
      "inputs": [
        {
          "indexed": true,
          "internalType": "address",
          "name": "owner",
          "type": "address"
        },
        {
          "indexed": true,
          "internalType": "address",
          "name": "operator",
          "type": "address"
        },
        {
          "indexed": false,
          "internalType": "bool",
          "name": "approved",
          "type": "bool"
        }
      ],
      "name": "ApprovalForAll",
      "type": "event"
    },
    {
      "anonymous": false,
      "inputs": [
        {
          "indexed": true,
          "internalType": "address",
          "name": "previousOwner",
          "type": "address"
        },
        {
          "indexed": true,
          "internalType": "address",
          "name": "newOwner",
          "type": "address"
        }
      ],
      "name": "OwnershipTransferred",
      "type": "event"
    },
    {
      "anonymous": false,
      "inputs": [
        {
          "indexed": true,
          "internalType": "address",
          "name": "from",
          "type": "address"
        },
        {
          "indexed": true,
          "internalType": "address",
          "name": "to",
          "type": "address"
        },
        {
          "indexed": true,
          "internalType": "uint256",
          "name": "tokenId",
          "type": "uint256"
        }
      ],
      "name": "Transfer",
      "type": "event"
    },
    {
      "inputs": [
        {
          "internalType": "address",
          "name": "to",
          "type": "address"
        },
        {
          "internalType": "uint256",
          "name": "tokenId",
          "type": "uint256"
        }
      ],
      "name": "approve",
      "outputs": [],
      "stateMutability": "nonpayable",
      "type": "function"
    },
    {
      "inputs": [
        {
          "internalType": "address",
          "name": "owner",
          "type": "address"
        }
      ],
      "name": "balanceOf",
      "outputs": [
        {
          "internalType": "uint256",
          "name": "",
          "type": "uint256"
        }
      ],
      "stateMutability": "view",
      "type": "function",
      "constant": true
    },
    {
      "inputs": [],
      "name": "baseURI",
      "outputs": [
        {
          "internalType": "string",
          "name": "",
          "type": "string"
        }
      ],
      "stateMutability": "view",
      "type": "function",
      "constant": true
    },
    {
      "inputs": [
        {
          "internalType": "uint256",
          "name": "tokenId",
          "type": "uint256"
        }
      ],
      "name": "getApproved",
      "outputs": [
        {
          "internalType": "address",
          "name": "",
          "type": "address"
        }
      ],
      "stateMutability": "view",
      "type": "function",
      "constant": true
    },
    {
      "inputs": [
        {
          "internalType": "address",
          "name": "owner",
          "type": "address"
        },
        {
          "internalType": "address",
          "name": "operator",
          "type": "address"
        }
      ],
      "name": "isApprovedForAll",
      "outputs": [
        {
          "internalType": "bool",
          "name": "",
          "type": "bool"
        }
      ],
      "stateMutability": "view",
      "type": "function",
      "constant": true
    },
    {
      "inputs": [],
      "name": "name",
      "outputs": [
        {
          "internalType": "string",
          "name": "",
          "type": "string"
        }
      ],
      "stateMutability": "view",
      "type": "function",
      "constant": true
    },
    {
      "inputs": [],
      "name": "owner",
      "outputs": [
        {
          "internalType": "address",
          "name": "",
          "type": "address"
        }
      ],
      "stateMutability": "view",
      "type": "function",
      "constant": true
    },
    {
      "inputs": [
        {
          "internalType": "uint256",
          "name": "tokenId",
          "type": "uint256"
        }
      ],
      "name": "ownerOf",
      "outputs": [
        {
          "internalType": "address",
          "name": "",
          "type": "address"
        }
      ],
      "stateMutability": "view",
      "type": "function",
      "constant": true
    },
    {
      "inputs": [],
      "name": "renounceOwnership",
      "outputs": [],
      "stateMutability": "nonpayable",
      "type": "function"
    },
    {
      "inputs": [
        {
          "internalType": "address",
          "name": "from",
          "type": "address"
        },
        {
          "internalType": "address",
          "name": "to",
          "type": "address"
        },
        {
          "internalType": "uint256",
          "name": "tokenId",
          "type": "uint256"
        }
      ],
      "name": "safeTransferFrom",
      "outputs": [],
      "stateMutability": "nonpayable",
      "type": "function"
    },
    {
      "inputs": [
        {
          "internalType": "address",
          "name": "from",
          "type": "address"
        },
        {
          "internalType": "address",
          "name": "to",
          "type": "address"
        },
        {
          "internalType": "uint256",
          "name": "tokenId",
          "type": "uint256"
        },
        {
          "internalType": "bytes",
          "name": "_data",
          "type": "bytes"
        }
      ],
      "name": "safeTransferFrom",
      "outputs": [],
      "stateMutability": "nonpayable",
      "type": "function"
    },
    {
      "inputs": [
        {
          "internalType": "address",
          "name": "operator",
          "type": "address"
        },
        {
          "internalType": "bool",
          "name": "approved",
          "type": "bool"
        }
      ],
      "name": "setApprovalForAll",
      "outputs": [],
      "stateMutability": "nonpayable",
      "type": "function"
    },
    {
      "inputs": [
        {
          "internalType": "bytes4",
          "name": "interfaceId",
          "type": "bytes4"
        }
      ],
      "name": "supportsInterface",
      "outputs": [
        {
          "internalType": "bool",
          "name": "",
          "type": "bool"
        }
      ],
      "stateMutability": "view",
      "type": "function",
      "constant": true
    },
    {
      "inputs": [],
      "name": "symbol",
      "outputs": [
        {
          "internalType": "string",
          "name": "",
          "type": "string"
        }
      ],
      "stateMutability": "view",
      "type": "function",
      "constant": true
    },
    {
      "inputs": [
        {
          "internalType": "uint256",
          "name": "index",
          "type": "uint256"
        }
      ],
      "name": "tokenByIndex",
      "outputs": [
        {
          "internalType": "uint256",
          "name": "",
          "type": "uint256"
        }
      ],
      "stateMutability": "view",
      "type": "function",
      "constant": true
    },
    {
      "inputs": [
        {
          "internalType": "address",
          "name": "owner",
          "type": "address"
        },
        {
          "internalType": "uint256",
          "name": "index",
          "type": "uint256"
        }
      ],
      "name": "tokenOfOwnerByIndex",
      "outputs": [
        {
          "internalType": "uint256",
          "name": "",
          "type": "uint256"
        }
      ],
      "stateMutability": "view",
      "type": "function",
      "constant": true
    },
    {
      "inputs": [
        {
          "internalType": "uint256",
          "name": "tokenId",
          "type": "uint256"
        }
      ],
      "name": "tokenURI",
      "outputs": [
        {
          "internalType": "string",
          "name": "",
          "type": "string"
        }
      ],
      "stateMutability": "view",
      "type": "function",
      "constant": true
    },
    {
      "inputs": [],
      "name": "totalSupply",
      "outputs": [
        {
          "internalType": "uint256",
          "name": "",
          "type": "uint256"
        }
      ],
      "stateMutability": "view",
      "type": "function",
      "constant": true
    },
    {
      "inputs": [
        {
          "internalType": "address",
          "name": "from",
          "type": "address"
        },
        {
          "internalType": "address",
          "name": "to",
          "type": "address"
        },
        {
          "internalType": "uint256",
          "name": "tokenId",
          "type": "uint256"
        }
      ],
      "name": "transferFrom",
      "outputs": [],
      "stateMutability": "nonpayable",
      "type": "function"
    },
    {
      "inputs": [
        {
          "internalType": "address",
          "name": "newOwner",
          "type": "address"
        }
      ],
      "name": "transferOwnership",
      "outputs": [],
      "stateMutability": "nonpayable",
      "type": "function"
    },
    {
      "inputs": [
        {
          "internalType": "address",
          "name": "player",
          "type": "address"
        },
        {
          "components": [
            {
              "internalType": "string",
              "name": "name",
              "type": "string"
            },
            {
              "internalType": "enum GameLoot.LootType",
              "name": "lootType",
              "type": "uint8"
            },
            {
              "internalType": "uint256",
              "name": "attk",
              "type": "uint256"
            },
            {
              "internalType": "uint256",
              "name": "def",
              "type": "uint256"
            }
          ],
          "internalType": "struct GameLoot.Loot",
          "name": "loot_",
          "type": "tuple"
        }
      ],
      "name": "loot",
      "outputs": [
        {
          "internalType": "uint256",
          "name": "",
          "type": "uint256"
        }
      ],
      "stateMutability": "nonpayable",
      "type": "function"
    },
    {
      "inputs": [
        {
          "internalType": "uint256",
          "name": "tokenId",
          "type": "uint256"
        }
      ],
      "name": "getLootById",
      "outputs": [
        {
          "components": [
            {
              "internalType": "string",
              "name": "name",
              "type": "string"
            },
            {
              "internalType": "enum GameLoot.LootType",
              "name": "lootType",
              "type": "uint8"
            },
            {
              "internalType": "uint256",
              "name": "attk",
              "type": "uint256"
            },
            {
              "internalType": "uint256",
              "name": "def",
              "type": "uint256"
            }
          ],
          "internalType": "struct GameLoot.Loot",
          "name": "",
          "type": "tuple"
        }
      ],
      "stateMutability": "view",
      "type": "function",
      "constant": true
    }
  ],
  "bytecode": "0x60806040523480156200001157600080fd5b506040516200402438038062004024833981810160405281019062000037919062000572565b6040518060400160405280600881526020017f47616d654c6f6f740000000000000000000000000000000000000000000000008152506040518060400160405280600481526020017f4c4f4f5400000000000000000000000000000000000000000000000000000000815250620000bb6301ffc9a760e01b6200020060201b60201c565b8160069080519060200190620000d3929190620004b5565b508060079080519060200190620000ec929190620004b5565b50620001056380ac58cd60e01b6200020060201b60201c565b6200011d635b5e139f60e01b6200020060201b60201c565b6200013563780e9d6360e01b6200020060201b60201c565b5050600062000149620002d860201b60201c565b905080600a60006101000a81548173ffffffffffffffffffffffffffffffffffffffff021916908373ffffffffffffffffffffffffffffffffffffffff1602179055508073ffffffffffffffffffffffffffffffffffffffff16600073ffffffffffffffffffffffffffffffffffffffff167f8be0079c531659141344cd1fd0a4f28419497f9722a3daafe3b4186f6b6457e060405160405180910390a350620001f981620002e060201b60201c565b506200074f565b63ffffffff60e01b817bffffffffffffffffffffffffffffffffffffffffffffffffffffffff191614156200026c576040517f08c379a00000000000000000000000000000000000000000000000000000000081526004016200026390620006ac565b60405180910390fd5b6001600080837bffffffffffffffffffffffffffffffffffffffffffffffffffffffff19167bffffffffffffffffffffffffffffffffffffffffffffffffffffffff1916815260200190815260200160002060006101000a81548160ff02191690831515021790555050565b600033905090565b620002f0620002d860201b60201c565b73ffffffffffffffffffffffffffffffffffffffff16600a60009054906101000a900473ffffffffffffffffffffffffffffffffffffffff1673ffffffffffffffffffffffffffffffffffffffff161462000382576040517f08c379a00000000000000000000000000000000000000000000000000000000081526004016200037990620006ce565b60405180910390fd5b600073ffffffffffffffffffffffffffffffffffffffff168173ffffffffffffffffffffffffffffffffffffffff161415620003f5576040517f08c379a0000000000000000000000000000000000000000000000000000000008152600401620003ec906200068a565b60405180910390fd5b8073ffffffffffffffffffffffffffffffffffffffff16600a60009054906101000a900473ffffffffffffffffffffffffffffffffffffffff1673ffffffffffffffffffffffffffffffffffffffff167f8be0079c531659141344cd1fd0a4f28419497f9722a3daafe3b4186f6b6457e060405160405180910390a380600a60006101000a81548173ffffffffffffffffffffffffffffffffffffffff021916908373ffffffffffffffffffffffffffffffffffffffff16021790555050565b828054600181600116156101000203166002900490600052602060002090601f016020900481019282601f10620004f857805160ff191683800117855562000529565b8280016001018555821562000529579182015b82811115620005285782518255916020019190600101906200050b565b5b5090506200053891906200053c565b5090565b5b80821115620005575760008160009055506001016200053d565b5090565b6000815190506200056c8162000735565b92915050565b6000602082840312156200058557600080fd5b600062000595848285016200055b565b91505092915050565b6000620005ad602683620006f0565b91507f4f776e61626c653a206e6577206f776e657220697320746865207a65726f206160008301527f64647265737300000000000000000000000000000000000000000000000000006020830152604082019050919050565b600062000615601c83620006f0565b91507f4552433136353a20696e76616c696420696e74657266616365206964000000006000830152602082019050919050565b600062000657602083620006f0565b91507f4f776e61626c653a2063616c6c6572206973206e6f7420746865206f776e65726000830152602082019050919050565b60006020820190508181036000830152620006a5816200059e565b9050919050565b60006020820190508181036000830152620006c78162000606565b9050919050565b60006020820190508181036000830152620006e98162000648565b9050919050565b600082825260208201905092915050565b60006200070e8262000715565b9050919050565b600073ffffffffffffffffffffffffffffffffffffffff82169050919050565b620007408162000701565b81146200074c57600080fd5b50565b6138c5806200075f6000396000f3fe608060405234801561001057600080fd5b50600436106101425760003560e01c80636c0360eb116100b8578063a22cb4651161007c578063a22cb4651461038b578063b88d4fde146103a7578063bd5519a2146103c3578063c87b56dd146103f3578063e985e9c514610423578063f2fde38b1461045357610142565b80636c0360eb146102f757806370a0823114610315578063715018a6146103455780638da5cb5b1461034f57806395d89b411461036d57610142565b806323b872dd1161010a57806323b872dd146101ff5780632f745c591461021b57806342842e0e1461024b5780634f6ccce71461026757806361e8ce04146102975780636352211e146102c757610142565b806301ffc9a71461014757806306fdde0314610177578063081812fc14610195578063095ea7b3146101c557806318160ddd146101e1575b600080fd5b610161600480360381019061015c919061281b565b61046f565b60405161016e91906132ca565b60405180910390f35b61017f6104d6565b60405161018c91906132e5565b60405180910390f35b6101af60048036038101906101aa919061286d565b610578565b6040516101bc9190613263565b60405180910390f35b6101df60048036038101906101da91906127df565b6105fd565b005b6101e9610715565b6040516101f691906135a9565b60405180910390f35b61021960048036038101906102149190612685565b610726565b005b610235600480360381019061023091906127df565b610786565b60405161024291906135a9565b60405180910390f35b61026560048036038101906102609190612685565b6107e1565b005b610281600480360381019061027c919061286d565b610801565b60405161028e91906135a9565b60405180910390f35b6102b160048036038101906102ac919061286d565b610824565b6040516102be9190613587565b60405180910390f35b6102e160048036038101906102dc919061286d565b61097c565b6040516102ee9190613263565b60405180910390f35b6102ff6109b3565b60405161030c91906132e5565b60405180910390f35b61032f600480360381019061032a9190612620565b610a55565b60405161033c91906135a9565b60405180910390f35b61034d610b14565b005b610357610c6c565b6040516103649190613263565b60405180910390f35b610375610c96565b60405161038291906132e5565b60405180910390f35b6103a560048036038101906103a0919061274f565b610d38565b005b6103c160048036038101906103bc91906126d4565b610eb9565b005b6103dd60048036038101906103d8919061278b565b610f1b565b6040516103ea91906135a9565b60405180910390f35b61040d6004803603810190610408919061286d565b611051565b60405161041a91906132e5565b60405180910390f35b61043d60048036038101906104389190612649565b6111dc565b60405161044a91906132ca565b60405180910390f35b61046d60048036038101906104689190612620565b611270565b005b6000806000837bffffffffffffffffffffffffffffffffffffffffffffffffffffffff19167bffffffffffffffffffffffffffffffffffffffffffffffffffffffff1916815260200190815260200160002060009054906101000a900460ff169050919050565b606060068054600181600116156101000203166002900480601f01602080910402602001604051908101604052809291908181526020018280546001816001161561010002031660029004801561056e5780601f106105435761010080835404028352916020019161056e565b820191906000526020600020905b81548152906001019060200180831161055157829003601f168201915b5050505050905090565b600061058382611437565b6105c2576040517f08c379a00000000000000000000000000000000000000000000000000000000081526004016105b990613487565b60405180910390fd5b6004600083815260200190815260200160002060009054906101000a900473ffffffffffffffffffffffffffffffffffffffff169050919050565b60006106088261097c565b90508073ffffffffffffffffffffffffffffffffffffffff168373ffffffffffffffffffffffffffffffffffffffff161415610679576040517f08c379a000000000000000000000000000000000000000000000000000000000815260040161067090613527565b60405180910390fd5b8073ffffffffffffffffffffffffffffffffffffffff16610698611454565b73ffffffffffffffffffffffffffffffffffffffff1614806106c757506106c6816106c1611454565b6111dc565b5b610706576040517f08c379a00000000000000000000000000000000000000000000000000000000081526004016106fd90613407565b60405180910390fd5b610710838361145c565b505050565b60006107216002611515565b905090565b610737610731611454565b8261152a565b610776576040517f08c379a000000000000000000000000000000000000000000000000000000000815260040161076d90613547565b60405180910390fd5b610781838383611608565b505050565b60006107d982600160008673ffffffffffffffffffffffffffffffffffffffff1673ffffffffffffffffffffffffffffffffffffffff16815260200190815260200160002061181f90919063ffffffff16565b905092915050565b6107fc83838360405180602001604052806000815250610eb9565b505050565b60008061081883600261183990919063ffffffff16565b50905080915050919050565b61082c61239e565b61083582611437565b610874576040517f08c379a000000000000000000000000000000000000000000000000000000000815260040161086b90613507565b60405180910390fd5b600c6000838152602001908152602001600020604051806080016040529081600082018054600181600116156101000203166002900480601f01602080910402602001604051908101604052809291908181526020018280546001816001161561010002031660029004801561092b5780601f106109005761010080835404028352916020019161092b565b820191906000526020600020905b81548152906001019060200180831161090e57829003601f168201915b505050505081526020016001820160009054906101000a900460ff16600181111561095257fe5b600181111561095d57fe5b8152602001600282015481526020016003820154815250509050919050565b60006109ac826040518060600160405280602981526020016138676029913960026118659092919063ffffffff16565b9050919050565b606060098054600181600116156101000203166002900480601f016020809104026020016040519081016040528092919081815260200182805460018160011615610100020316600290048015610a4b5780601f10610a2057610100808354040283529160200191610a4b565b820191906000526020600020905b815481529060010190602001808311610a2e57829003601f168201915b5050505050905090565b60008073ffffffffffffffffffffffffffffffffffffffff168273ffffffffffffffffffffffffffffffffffffffff161415610ac6576040517f08c379a0000000000000000000000000000000000000000000000000000000008152600401610abd90613427565b60405180910390fd5b610b0d600160008473ffffffffffffffffffffffffffffffffffffffff1673ffffffffffffffffffffffffffffffffffffffff168152602001908152602001600020611884565b9050919050565b610b1c611454565b73ffffffffffffffffffffffffffffffffffffffff16600a60009054906101000a900473ffffffffffffffffffffffffffffffffffffffff1673ffffffffffffffffffffffffffffffffffffffff1614610bab576040517f08c379a0000000000000000000000000000000000000000000000000000000008152600401610ba2906134a7565b60405180910390fd5b600073ffffffffffffffffffffffffffffffffffffffff16600a60009054906101000a900473ffffffffffffffffffffffffffffffffffffffff1673ffffffffffffffffffffffffffffffffffffffff167f8be0079c531659141344cd1fd0a4f28419497f9722a3daafe3b4186f6b6457e060405160405180910390a36000600a60006101000a81548173ffffffffffffffffffffffffffffffffffffffff021916908373ffffffffffffffffffffffffffffffffffffffff160217905550565b6000600a60009054906101000a900473ffffffffffffffffffffffffffffffffffffffff16905090565b606060078054600181600116156101000203166002900480601f016020809104026020016040519081016040528092919081815260200182805460018160011615610100020316600290048015610d2e5780601f10610d0357610100808354040283529160200191610d2e565b820191906000526020600020905b815481529060010190602001808311610d1157829003601f168201915b5050505050905090565b610d40611454565b73ffffffffffffffffffffffffffffffffffffffff168273ffffffffffffffffffffffffffffffffffffffff161415610dae576040517f08c379a0000000000000000000000000000000000000000000000000000000008152600401610da5906133a7565b60405180910390fd5b8060056000610dbb611454565b73ffffffffffffffffffffffffffffffffffffffff1673ffffffffffffffffffffffffffffffffffffffff16815260200190815260200160002060008473ffffffffffffffffffffffffffffffffffffffff1673ffffffffffffffffffffffffffffffffffffffff16815260200190815260200160002060006101000a81548160ff0219169083151502179055508173ffffffffffffffffffffffffffffffffffffffff16610e68611454565b73ffffffffffffffffffffffffffffffffffffffff167f17307eab39ab6107e8899845ad3d59bd9653f200f220920489ca2b5937696c3183604051610ead91906132ca565b60405180910390a35050565b610eca610ec4611454565b8361152a565b610f09576040517f08c379a0000000000000000000000000000000000000000000000000000000008152600401610f0090613547565b60405180910390fd5b610f1584848484611899565b50505050565b6000610f25611454565b73ffffffffffffffffffffffffffffffffffffffff16600a60009054906101000a900473ffffffffffffffffffffffffffffffffffffffff1673ffffffffffffffffffffffffffffffffffffffff1614610fb4576040517f08c379a0000000000000000000000000000000000000000000000000000000008152600401610fab906134a7565b60405180910390fd5b610fbe600b6118f5565b6000610fca600b61190b565b9050610fd68482611919565b82600c600083815260200190815260200160002060008201518160000190805190602001906110069291906123d1565b5060208201518160010160006101000a81548160ff0219169083600181111561102b57fe5b021790555060408201518160020155606082015181600301559050508091505092915050565b606061105c82611437565b61109b576040517f08c379a0000000000000000000000000000000000000000000000000000000008152600401611092906134e7565b60405180910390fd5b6060600860008481526020019081526020016000208054600181600116156101000203166002900480601f0160208091040260200160405190810160405280929190818152602001828054600181600116156101000203166002900480156111445780601f1061111957610100808354040283529160200191611144565b820191906000526020600020905b81548152906001019060200180831161112757829003601f168201915b5050505050905060006009805460018160011615610100020316600290049050141561117357809150506111d7565b6000815111156111a85760098160405160200161119192919061323f565b6040516020818303038152906040529150506111d7565b60096111b384611aa7565b6040516020016111c492919061323f565b6040516020818303038152906040529150505b919050565b6000600560008473ffffffffffffffffffffffffffffffffffffffff1673ffffffffffffffffffffffffffffffffffffffff16815260200190815260200160002060008373ffffffffffffffffffffffffffffffffffffffff1673ffffffffffffffffffffffffffffffffffffffff16815260200190815260200160002060009054906101000a900460ff16905092915050565b611278611454565b73ffffffffffffffffffffffffffffffffffffffff16600a60009054906101000a900473ffffffffffffffffffffffffffffffffffffffff1673ffffffffffffffffffffffffffffffffffffffff1614611307576040517f08c379a00000000000000000000000000000000000000000000000000000000081526004016112fe906134a7565b60405180910390fd5b600073ffffffffffffffffffffffffffffffffffffffff168173ffffffffffffffffffffffffffffffffffffffff161415611377576040517f08c379a000000000000000000000000000000000000000000000000000000000815260040161136e90613347565b60405180910390fd5b8073ffffffffffffffffffffffffffffffffffffffff16600a60009054906101000a900473ffffffffffffffffffffffffffffffffffffffff1673ffffffffffffffffffffffffffffffffffffffff167f8be0079c531659141344cd1fd0a4f28419497f9722a3daafe3b4186f6b6457e060405160405180910390a380600a60006101000a81548173ffffffffffffffffffffffffffffffffffffffff021916908373ffffffffffffffffffffffffffffffffffffffff16021790555050565b600061144d826002611bee90919063ffffffff16565b9050919050565b600033905090565b816004600083815260200190815260200160002060006101000a81548173ffffffffffffffffffffffffffffffffffffffff021916908373ffffffffffffffffffffffffffffffffffffffff160217905550808273ffffffffffffffffffffffffffffffffffffffff166114cf8361097c565b73ffffffffffffffffffffffffffffffffffffffff167f8c5be1e5ebec7d5bd14f71427d1e84f3dd0314c0f7b2291e5b200ac8c7c3b92560405160405180910390a45050565b600061152382600001611c08565b9050919050565b600061153582611437565b611574576040517f08c379a000000000000000000000000000000000000000000000000000000000815260040161156b906133e7565b60405180910390fd5b600061157f8361097c565b90508073ffffffffffffffffffffffffffffffffffffffff168473ffffffffffffffffffffffffffffffffffffffff1614806115ee57508373ffffffffffffffffffffffffffffffffffffffff166115d684610578565b73ffffffffffffffffffffffffffffffffffffffff16145b806115ff57506115fe81856111dc565b5b91505092915050565b8273ffffffffffffffffffffffffffffffffffffffff166116288261097c565b73ffffffffffffffffffffffffffffffffffffffff161461167e576040517f08c379a0000000000000000000000000000000000000000000000000000000008152600401611675906134c7565b60405180910390fd5b600073ffffffffffffffffffffffffffffffffffffffff168273ffffffffffffffffffffffffffffffffffffffff1614156116ee576040517f08c379a00000000000000000000000000000000000000000000000000000000081526004016116e590613387565b60405180910390fd5b6116f9838383611c19565b61170460008261145c565b61175581600160008673ffffffffffffffffffffffffffffffffffffffff1673ffffffffffffffffffffffffffffffffffffffff168152602001908152602001600020611c1e90919063ffffffff16565b506117a781600160008573ffffffffffffffffffffffffffffffffffffffff1673ffffffffffffffffffffffffffffffffffffffff168152602001908152602001600020611c3890919063ffffffff16565b506117be81836002611c529092919063ffffffff16565b50808273ffffffffffffffffffffffffffffffffffffffff168473ffffffffffffffffffffffffffffffffffffffff167fddf252ad1be2c89b69c2b068fc378daa952ba7f163c4a11628f55a4df523b3ef60405160405180910390a4505050565b600061182e8360000183611c87565b60001c905092915050565b60008060008061184c8660000186611cf4565b915091508160001c8160001c9350935050509250929050565b6000611878846000018460001b84611d77565b60001c90509392505050565b600061189282600001611e08565b9050919050565b6118a4848484611608565b6118b084848484611e19565b6118ef576040517f08c379a00000000000000000000000000000000000000000000000000000000081526004016118e690613327565b60405180910390fd5b50505050565b6001816000016000828254019250508190555050565b600081600001549050919050565b600073ffffffffffffffffffffffffffffffffffffffff168273ffffffffffffffffffffffffffffffffffffffff161415611989576040517f08c379a000000000000000000000000000000000000000000000000000000000815260040161198090613467565b60405180910390fd5b61199281611437565b156119d2576040517f08c379a00000000000000000000000000000000000000000000000000000000081526004016119c990613367565b60405180910390fd5b6119de60008383611c19565b611a2f81600160008573ffffffffffffffffffffffffffffffffffffffff1673ffffffffffffffffffffffffffffffffffffffff168152602001908152602001600020611c3890919063ffffffff16565b50611a4681836002611c529092919063ffffffff16565b50808273ffffffffffffffffffffffffffffffffffffffff16600073ffffffffffffffffffffffffffffffffffffffff167fddf252ad1be2c89b69c2b068fc378daa952ba7f163c4a11628f55a4df523b3ef60405160405180910390a45050565b60606000821415611aef576040518060400160405280600181526020017f30000000000000000000000000000000000000000000000000000000000000008152509050611be9565b600082905060005b60008214611b19578080600101915050600a8281611b1157fe5b049150611af7565b60608167ffffffffffffffff81118015611b3257600080fd5b506040519080825280601f01601f191660200182016040528015611b655781602001600182028036833780820191505090505b50905060006001830390508593505b60008414611be157600a8481611b8657fe5b0660300160f81b82828060019003935081518110611ba057fe5b60200101907effffffffffffffffffffffffffffffffffffffffffffffffffffffffffffff1916908160001a905350600a8481611bd957fe5b049350611b74565b819450505050505b919050565b6000611c00836000018360001b611f7d565b905092915050565b600081600001805490509050919050565b505050565b6000611c30836000018360001b611fa0565b905092915050565b6000611c4a836000018360001b612088565b905092915050565b6000611c7e846000018460001b8473ffffffffffffffffffffffffffffffffffffffff1660001b6120f8565b90509392505050565b600081836000018054905011611cd2576040517f08c379a0000000000000000000000000000000000000000000000000000000008152600401611cc990613307565b60405180910390fd5b826000018281548110611ce157fe5b9060005260206000200154905092915050565b60008082846000018054905011611d40576040517f08c379a0000000000000000000000000000000000000000000000000000000008152600401611d3790613447565b60405180910390fd5b6000846000018481548110611d5157fe5b906000526020600020906002020190508060000154816001015492509250509250929050565b60008084600101600085815260200190815260200160002054905060008114158390611dd9576040517f08c379a0000000000000000000000000000000000000000000000000000000008152600401611dd091906132e5565b60405180910390fd5b50846000016001820381548110611dec57fe5b9060005260206000209060020201600101549150509392505050565b600081600001805490509050919050565b6000611e3a8473ffffffffffffffffffffffffffffffffffffffff166121d4565b611e475760019050611f75565b6060611f0e63150b7a0260e01b611e5c611454565b888787604051602401611e72949392919061327e565b604051602081830303815290604052907bffffffffffffffffffffffffffffffffffffffffffffffffffffffff19166020820180517bffffffffffffffffffffffffffffffffffffffffffffffffffffffff8381831617835250505050604051806060016040528060328152602001613835603291398773ffffffffffffffffffffffffffffffffffffffff166121e79092919063ffffffff16565b9050600081806020019051810190611f269190612844565b905063150b7a0260e01b7bffffffffffffffffffffffffffffffffffffffffffffffffffffffff1916817bffffffffffffffffffffffffffffffffffffffffffffffffffffffff191614925050505b949350505050565b600080836001016000848152602001908152602001600020541415905092915050565b6000808360010160008481526020019081526020016000205490506000811461207c5760006001820390506000600186600001805490500390506000866000018281548110611feb57fe5b906000526020600020015490508087600001848154811061200857fe5b906000526020600020018190555060018301876001016000838152602001908152602001600020819055508660000180548061204057fe5b60019003818190600052602060002001600090559055866001016000878152602001908152602001600020600090556001945050505050612082565b60009150505b92915050565b600061209483836121ff565b6120ed5782600001829080600181540180825580915050600190039060005260206000200160009091909190915055826000018054905083600101600084815260200190815260200160002081905550600190506120f2565b600090505b92915050565b600080846001016000858152602001908152602001600020549050600081141561219f578460000160405180604001604052808681526020018581525090806001815401808255809150506001900390600052602060002090600202016000909190919091506000820151816000015560208201518160010155505084600001805490508560010160008681526020019081526020016000208190555060019150506121cd565b828560000160018303815481106121b257fe5b90600052602060002090600202016001018190555060009150505b9392505050565b600080823b905060008111915050919050565b60606121f68484600085612222565b90509392505050565b600080836001016000848152602001908152602001600020541415905092915050565b606082471015612267576040517f08c379a000000000000000000000000000000000000000000000000000000000815260040161225e906133c7565b60405180910390fd5b612270856121d4565b6122af576040517f08c379a00000000000000000000000000000000000000000000000000000000081526004016122a690613567565b60405180910390fd5b600060608673ffffffffffffffffffffffffffffffffffffffff1685876040516122d99190613228565b60006040518083038185875af1925050503d8060008114612316576040519150601f19603f3d011682016040523d82523d6000602084013e61231b565b606091505b509150915061232b828286612337565b92505050949350505050565b6060831561234757829050612397565b60008351111561235a5782518084602001fd5b816040517f08c379a000000000000000000000000000000000000000000000000000000000815260040161238e91906132e5565b60405180910390fd5b9392505050565b604051806080016040528060608152602001600060018111156123bd57fe5b815260200160008152602001600081525090565b828054600181600116156101000203166002900490600052602060002090601f016020900481019282601f1061241257805160ff1916838001178555612440565b82800160010185558215612440579182015b8281111561243f578251825591602001919060010190612424565b5b50905061244d9190612451565b5090565b5b8082111561246a576000816000905550600101612452565b5090565b60008135905061247d816137c8565b92915050565b600081359050612492816137df565b92915050565b6000813590506124a7816137f6565b92915050565b6000815190506124bc816137f6565b92915050565b600082601f8301126124d357600080fd5b81356124e66124e1826135f1565b6135c4565b9150808252602083016020830185838301111561250257600080fd5b61250d838284613768565b50505092915050565b6000813590506125258161380d565b92915050565b600082601f83011261253c57600080fd5b813561254f61254a8261361d565b6135c4565b9150808252602083016020830185838301111561256b57600080fd5b612576838284613768565b50505092915050565b60006080828403121561259157600080fd5b61259b60806135c4565b9050600082013567ffffffffffffffff8111156125b757600080fd5b6125c38482850161252b565b60008301525060206125d784828501612516565b60208301525060406125eb8482850161260b565b60408301525060606125ff8482850161260b565b60608301525092915050565b60008135905061261a8161381d565b92915050565b60006020828403121561263257600080fd5b60006126408482850161246e565b91505092915050565b6000806040838503121561265c57600080fd5b600061266a8582860161246e565b925050602061267b8582860161246e565b9150509250929050565b60008060006060848603121561269a57600080fd5b60006126a88682870161246e565b93505060206126b98682870161246e565b92505060406126ca8682870161260b565b9150509250925092565b600080600080608085870312156126ea57600080fd5b60006126f88782880161246e565b94505060206127098782880161246e565b935050604061271a8782880161260b565b925050606085013567ffffffffffffffff81111561273757600080fd5b612743878288016124c2565b91505092959194509250565b6000806040838503121561276257600080fd5b60006127708582860161246e565b925050602061278185828601612483565b9150509250929050565b6000806040838503121561279e57600080fd5b60006127ac8582860161246e565b925050602083013567ffffffffffffffff8111156127c957600080fd5b6127d58582860161257f565b9150509250929050565b600080604083850312156127f257600080fd5b60006128008582860161246e565b92505060206128118582860161260b565b9150509250929050565b60006020828403121561282d57600080fd5b600061283b84828501612498565b91505092915050565b60006020828403121561285657600080fd5b6000612864848285016124ad565b91505092915050565b60006020828403121561287f57600080fd5b600061288d8482850161260b565b91505092915050565b61289f816136cf565b82525050565b6128ae816136bd565b82525050565b6128bd816136e1565b82525050565b60006128ce8261365e565b6128d88185613674565b93506128e8818560208601613777565b6128f1816137aa565b840191505092915050565b60006129078261365e565b6129118185613685565b9350612921818560208601613777565b80840191505092915050565b61293681613756565b82525050565b600061294782613669565b6129518185613690565b9350612961818560208601613777565b61296a816137aa565b840191505092915050565b600061298082613669565b61298a81856136a1565b935061299a818560208601613777565b6129a3816137aa565b840191505092915050565b60006129b982613669565b6129c381856136b2565b93506129d3818560208601613777565b80840191505092915050565b6000815460018116600081146129fc5760018114612a2157612a65565b607f6002830416612a0d81876136b2565b955060ff1983168652808601935050612a65565b60028204612a2f81876136b2565b9550612a3a85613649565b60005b82811015612a5c57815481890152600182019150602081019050612a3d565b82880195505050505b505092915050565b6000612a7a6022836136a1565b91507f456e756d657261626c655365743a20696e646578206f7574206f6620626f756e60008301527f64730000000000000000000000000000000000000000000000000000000000006020830152604082019050919050565b6000612ae06032836136a1565b91507f4552433732313a207472616e7366657220746f206e6f6e20455243373231526560008301527f63656976657220696d706c656d656e74657200000000000000000000000000006020830152604082019050919050565b6000612b466026836136a1565b91507f4f776e61626c653a206e6577206f776e657220697320746865207a65726f206160008301527f64647265737300000000000000000000000000000000000000000000000000006020830152604082019050919050565b6000612bac601c836136a1565b91507f4552433732313a20746f6b656e20616c7265616479206d696e746564000000006000830152602082019050919050565b6000612bec6024836136a1565b91507f4552433732313a207472616e7366657220746f20746865207a65726f2061646460008301527f72657373000000000000000000000000000000000000000000000000000000006020830152604082019050919050565b6000612c526019836136a1565b91507f4552433732313a20617070726f766520746f2063616c6c6572000000000000006000830152602082019050919050565b6000612c926026836136a1565b91507f416464726573733a20696e73756666696369656e742062616c616e636520666f60008301527f722063616c6c00000000000000000000000000000000000000000000000000006020830152604082019050919050565b6000612cf8602c836136a1565b91507f4552433732313a206f70657261746f7220717565727920666f72206e6f6e657860008301527f697374656e7420746f6b656e00000000000000000000000000000000000000006020830152604082019050919050565b6000612d5e6038836136a1565b91507f4552433732313a20617070726f76652063616c6c6572206973206e6f74206f7760008301527f6e6572206e6f7220617070726f76656420666f7220616c6c00000000000000006020830152604082019050919050565b6000612dc4602a836136a1565b91507f4552433732313a2062616c616e636520717565727920666f7220746865207a6560008301527f726f2061646472657373000000000000000000000000000000000000000000006020830152604082019050919050565b6000612e2a6022836136a1565b91507f456e756d657261626c654d61703a20696e646578206f7574206f6620626f756e60008301527f64730000000000000000000000000000000000000000000000000000000000006020830152604082019050919050565b6000612e906020836136a1565b91507f4552433732313a206d696e7420746f20746865207a65726f20616464726573736000830152602082019050919050565b6000612ed0602c836136a1565b91507f4552433732313a20617070726f76656420717565727920666f72206e6f6e657860008301527f697374656e7420746f6b656e00000000000000000000000000000000000000006020830152604082019050919050565b6000612f366020836136a1565b91507f4f776e61626c653a2063616c6c6572206973206e6f7420746865206f776e65726000830152602082019050919050565b6000612f766029836136a1565b91507f4552433732313a207472616e73666572206f6620746f6b656e2074686174206960008301527f73206e6f74206f776e00000000000000000000000000000000000000000000006020830152604082019050919050565b6000612fdc602f836136a1565b91507f4552433732314d657461646174613a2055524920717565727920666f72206e6f60008301527f6e6578697374656e7420746f6b656e00000000000000000000000000000000006020830152604082019050919050565b6000613042602a836136a1565b91507f47616d654c6f6f743a204c6f6f7420717565727920666f72206e6f6e6578697360008301527f74656e7420746f6b656e000000000000000000000000000000000000000000006020830152604082019050919050565b60006130a86021836136a1565b91507f4552433732313a20617070726f76616c20746f2063757272656e74206f776e6560008301527f72000000000000000000000000000000000000000000000000000000000000006020830152604082019050919050565b600061310e6031836136a1565b91507f4552433732313a207472616e736665722063616c6c6572206973206e6f74206f60008301527f776e6572206e6f7220617070726f7665640000000000000000000000000000006020830152604082019050919050565b6000613174601d836136a1565b91507f416464726573733a2063616c6c20746f206e6f6e2d636f6e74726163740000006000830152602082019050919050565b600060808301600083015184820360008601526131c4828261293c565b91505060208301516131d9602086018261292d565b5060408301516131ec604086018261320a565b5060608301516131ff606086018261320a565b508091505092915050565b6132138161374c565b82525050565b6132228161374c565b82525050565b600061323482846128fc565b915081905092915050565b600061324b82856129df565b915061325782846129ae565b91508190509392505050565b600060208201905061327860008301846128a5565b92915050565b60006080820190506132936000830187612896565b6132a060208301866128a5565b6132ad6040830185613219565b81810360608301526132bf81846128c3565b905095945050505050565b60006020820190506132df60008301846128b4565b92915050565b600060208201905081810360008301526132ff8184612975565b905092915050565b6000602082019050818103600083015261332081612a6d565b9050919050565b6000602082019050818103600083015261334081612ad3565b9050919050565b6000602082019050818103600083015261336081612b39565b9050919050565b6000602082019050818103600083015261338081612b9f565b9050919050565b600060208201905081810360008301526133a081612bdf565b9050919050565b600060208201905081810360008301526133c081612c45565b9050919050565b600060208201905081810360008301526133e081612c85565b9050919050565b6000602082019050818103600083015261340081612ceb565b9050919050565b6000602082019050818103600083015261342081612d51565b9050919050565b6000602082019050818103600083015261344081612db7565b9050919050565b6000602082019050818103600083015261346081612e1d565b9050919050565b6000602082019050818103600083015261348081612e83565b9050919050565b600060208201905081810360008301526134a081612ec3565b9050919050565b600060208201905081810360008301526134c081612f29565b9050919050565b600060208201905081810360008301526134e081612f69565b9050919050565b6000602082019050818103600083015261350081612fcf565b9050919050565b6000602082019050818103600083015261352081613035565b9050919050565b600060208201905081810360008301526135408161309b565b9050919050565b6000602082019050818103600083015261356081613101565b9050919050565b6000602082019050818103600083015261358081613167565b9050919050565b600060208201905081810360008301526135a181846131a7565b905092915050565b60006020820190506135be6000830184613219565b92915050565b6000604051905081810181811067ffffffffffffffff821117156135e757600080fd5b8060405250919050565b600067ffffffffffffffff82111561360857600080fd5b601f19601f8301169050602081019050919050565b600067ffffffffffffffff82111561363457600080fd5b601f19601f8301169050602081019050919050565b60008190508160005260206000209050919050565b600081519050919050565b600081519050919050565b600082825260208201905092915050565b600081905092915050565b600082825260208201905092915050565b600082825260208201905092915050565b600081905092915050565b60006136c88261372c565b9050919050565b60006136da8261372c565b9050919050565b60008115159050919050565b60007fffffffff0000000000000000000000000000000000000000000000000000000082169050919050565b6000819050613727826137bb565b919050565b600073ffffffffffffffffffffffffffffffffffffffff82169050919050565b6000819050919050565b600061376182613719565b9050919050565b82818337600083830152505050565b60005b8381101561379557808201518184015260208101905061377a565b838111156137a4576000848401525b50505050565b6000601f19601f8301169050919050565b600281106137c557fe5b50565b6137d1816136bd565b81146137dc57600080fd5b50565b6137e8816136e1565b81146137f357600080fd5b50565b6137ff816136ed565b811461380a57600080fd5b50565b6002811061381a57600080fd5b50565b6138268161374c565b811461383157600080fd5b5056fe4552433732313a207472616e7366657220746f206e6f6e20455243373231526563656976657220696d706c656d656e7465724552433732313a206f776e657220717565727920666f72206e6f6e6578697374656e7420746f6b656ea2646970667358221220da1f20974b7b69c8aa54473668022d3872dd402ebf2a803217d93be7a4e2c03d64736f6c634300060c0033",
  "immutableReferences": {},
  "source": " // contracts/GameItem.sol\n// SPDX-License-Identifier: MIT\npragma solidity ^0.6.0;\npragma experimental ABIEncoderV2;\n\nimport \"@openzeppelin/contracts/token/ERC721/ERC721.sol\";\nimport \"@openzeppelin/contracts/utils/Counters.sol\";\nimport \"@openzeppelin/contracts/access/Ownable.sol\";\n\ncontract GameLoot is ERC721, Ownable {\n    using Counters for Counters.Counter;\n    Counters.Counter private _tokenIds;\n\n    enum LootType {Weapon, Armor}\n\n    struct Loot {\n        string name;\n        LootType lootType;\n        uint256 attk;\n        uint256 def;\n    }\n\n    mapping(uint256 => Loot) private _loots;\n\n    constructor(address owner) public ERC721(\"GameLoot\", \"LOOT\") {\n        transferOwnership(owner);\n    }\n\n    function loot(address player, Loot memory loot_) public onlyOwner returns (uint256) {\n        _tokenIds.increment();\n        uint256 newTokenId = _tokenIds.current();\n        _mint(player, newTokenId);\n        _loots[newTokenId] = loot_;\n        return newTokenId;\n    }\n\n    function getLootById(uint256 tokenId) public view returns (Loot memory) {\n        require(_exists(tokenId), \"GameLoot: Loot query for nonexistent token\");\n        return _loots[tokenId];\n    }\n}\n\n\n",
  "sourcePath": "/Users/itanis/Desktop/projets/web3-truffle/contracts/GameLoot.sol",
  "compiler": {
    "name": "solc",
    "version": "0.6.12+commit.27d51765.Linux.g++"
  },
  "schemaVersion": "3.3.1",
  "updatedAt": "2021-01-10T21:29:05.954Z",
  "networkType": "ethereum",
  "devdoc": {
    "kind": "dev",
    "methods": {
      "approve(address,uint256)": {
        "details": "See {IERC721-approve}."
      },
      "balanceOf(address)": {
        "details": "See {IERC721-balanceOf}."
      },
      "baseURI()": {
        "details": "Returns the base URI set via {_setBaseURI}. This will be automatically added as a prefix in {tokenURI} to each token's URI, or to the token ID if no specific URI is set for that token ID."
      },
      "getApproved(uint256)": {
        "details": "See {IERC721-getApproved}."
      },
      "isApprovedForAll(address,address)": {
        "details": "See {IERC721-isApprovedForAll}."
      },
      "name()": {
        "details": "See {IERC721Metadata-name}."
      },
      "owner()": {
        "details": "Returns the address of the current owner."
      },
      "ownerOf(uint256)": {
        "details": "See {IERC721-ownerOf}."
      },
      "renounceOwnership()": {
        "details": "Leaves the contract without owner. It will not be possible to call `onlyOwner` functions anymore. Can only be called by the current owner. NOTE: Renouncing ownership will leave the contract without an owner, thereby removing any functionality that is only available to the owner."
      },
      "safeTransferFrom(address,address,uint256)": {
        "details": "See {IERC721-safeTransferFrom}."
      },
      "safeTransferFrom(address,address,uint256,bytes)": {
        "details": "See {IERC721-safeTransferFrom}."
      },
      "setApprovalForAll(address,bool)": {
        "details": "See {IERC721-setApprovalForAll}."
      },
      "supportsInterface(bytes4)": {
        "details": "See {IERC165-supportsInterface}. Time complexity O(1), guaranteed to always use less than 30 000 gas."
      },
      "symbol()": {
        "details": "See {IERC721Metadata-symbol}."
      },
      "tokenByIndex(uint256)": {
        "details": "See {IERC721Enumerable-tokenByIndex}."
      },
      "tokenOfOwnerByIndex(address,uint256)": {
        "details": "See {IERC721Enumerable-tokenOfOwnerByIndex}."
      },
      "tokenURI(uint256)": {
        "details": "See {IERC721Metadata-tokenURI}."
      },
      "totalSupply()": {
        "details": "See {IERC721Enumerable-totalSupply}."
      },
      "transferFrom(address,address,uint256)": {
        "details": "See {IERC721-transferFrom}."
      },
      "transferOwnership(address)": {
        "details": "Transfers ownership of the contract to a new account (`newOwner`). Can only be called by the current owner."
      }
    },
    "version": 1
  },
  "userdoc": {
    "kind": "user",
    "methods": {},
    "version": 1
  }
}