{
  "contractName": "Reservation",
  "abi": [
    {
      "inputs": [
        {
          "internalType": "address",
          "name": "owner",
          "type": "address"
        }
      ],
      "stateMutability": "nonpayable",
      "type": "constructor"
    },
    {
      "anonymous": false,
      "inputs": [
        {
          "indexed": true,
          "internalType": "address",
          "name": "previousOwner",
          "type": "address"
        },
        {
          "indexed": true,
          "internalType": "address",
          "name": "newOwner",
          "type": "address"
        }
      ],
      "name": "OwnershipTransferred",
      "type": "event"
    },
    {
      "inputs": [
        {
          "internalType": "uint256",
          "name": "",
          "type": "uint256"
        }
      ],
      "name": "_info",
      "outputs": [
        {
          "internalType": "uint256",
          "name": "no_days",
          "type": "uint256"
        },
        {
          "internalType": "string",
          "name": "transport",
          "type": "string"
        },
        {
          "internalType": "bool",
          "name": "restinclus",
          "type": "bool"
        }
      ],
      "stateMutability": "view",
      "type": "function"
    },
    {
      "inputs": [],
      "name": "owner",
      "outputs": [
        {
          "internalType": "address",
          "name": "",
          "type": "address"
        }
      ],
      "stateMutability": "view",
      "type": "function"
    },
    {
      "inputs": [],
      "name": "renounceOwnership",
      "outputs": [],
      "stateMutability": "nonpayable",
      "type": "function"
    },
    {
      "inputs": [
        {
          "internalType": "address",
          "name": "newOwner",
          "type": "address"
        }
      ],
      "name": "transferOwnership",
      "outputs": [],
      "stateMutability": "nonpayable",
      "type": "function"
    },
    {
      "inputs": [
        {
          "internalType": "uint256",
          "name": "_no_days",
          "type": "uint256"
        },
        {
          "internalType": "string",
          "name": "_transport",
          "type": "string"
        },
        {
          "internalType": "bool",
          "name": "_restinclus",
          "type": "bool"
        }
      ],
      "name": "addReservation",
      "outputs": [],
      "stateMutability": "nonpayable",
      "type": "function"
    },
    {
      "inputs": [
        {
          "internalType": "uint256",
          "name": "_num",
          "type": "uint256"
        }
      ],
      "name": "getReservation",
      "outputs": [
        {
          "components": [
            {
              "internalType": "uint256",
              "name": "no_days",
              "type": "uint256"
            },
            {
              "internalType": "string",
              "name": "transport",
              "type": "string"
            },
            {
              "internalType": "bool",
              "name": "restinclus",
              "type": "bool"
            }
          ],
          "internalType": "struct Reservation.Info",
          "name": "",
          "type": "tuple"
        }
      ],
      "stateMutability": "view",
      "type": "function"
    }
  ],
  "bytecode": "0x60806040523480156200001157600080fd5b5060405162001158380380620011588339818101604052810190620000379190620002ee565b600062000049620000ff60201b60201c565b9050806000806101000a81548173ffffffffffffffffffffffffffffffffffffffff021916908373ffffffffffffffffffffffffffffffffffffffff1602179055508073ffffffffffffffffffffffffffffffffffffffff16600073ffffffffffffffffffffffffffffffffffffffff167f8be0079c531659141344cd1fd0a4f28419497f9722a3daafe3b4186f6b6457e060405160405180910390a350620000f8816200010760201b60201c565b5062000467565b600033905090565b62000117620000ff60201b60201c565b73ffffffffffffffffffffffffffffffffffffffff1660008054906101000a900473ffffffffffffffffffffffffffffffffffffffff1673ffffffffffffffffffffffffffffffffffffffff1614620001a7576040517f08c379a00000000000000000000000000000000000000000000000000000000081526004016200019e90620003e6565b60405180910390fd5b600073ffffffffffffffffffffffffffffffffffffffff168173ffffffffffffffffffffffffffffffffffffffff1614156200021a576040517f08c379a00000000000000000000000000000000000000000000000000000000081526004016200021190620003c4565b60405180910390fd5b8073ffffffffffffffffffffffffffffffffffffffff1660008054906101000a900473ffffffffffffffffffffffffffffffffffffffff1673ffffffffffffffffffffffffffffffffffffffff167f8be0079c531659141344cd1fd0a4f28419497f9722a3daafe3b4186f6b6457e060405160405180910390a3806000806101000a81548173ffffffffffffffffffffffffffffffffffffffff021916908373ffffffffffffffffffffffffffffffffffffffff16021790555050565b600081519050620002e8816200044d565b92915050565b6000602082840312156200030157600080fd5b60006200031184828501620002d7565b91505092915050565b60006200032960268362000408565b91507f4f776e61626c653a206e6577206f776e657220697320746865207a65726f206160008301527f64647265737300000000000000000000000000000000000000000000000000006020830152604082019050919050565b60006200039160208362000408565b91507f4f776e61626c653a2063616c6c6572206973206e6f7420746865206f776e65726000830152602082019050919050565b60006020820190508181036000830152620003df816200031a565b9050919050565b60006020820190508181036000830152620004018162000382565b9050919050565b600082825260208201905092915050565b600062000426826200042d565b9050919050565b600073ffffffffffffffffffffffffffffffffffffffff82169050919050565b620004588162000419565b81146200046457600080fd5b50565b610ce180620004776000396000f3fe608060405234801561001057600080fd5b50600436106100625760003560e01c8063715018a614610067578063731369cc146100715780638da5cb5b1461008d578063be974335146100ab578063d57763c3146100dd578063f2fde38b1461010d575b600080fd5b61006f610129565b005b61008b60048036038101906100869190610870565b61027c565b005b610095610315565b6040516100a29190610a8a565b60405180910390f35b6100c560048036038101906100c09190610847565b61033e565b6040516100d493929190610b07565b60405180910390f35b6100f760048036038101906100f29190610847565b61040d565b6040516101049190610ae5565b60405180910390f35b6101276004803603810190610122919061081e565b610501565b005b6101316106c3565b73ffffffffffffffffffffffffffffffffffffffff1660008054906101000a900473ffffffffffffffffffffffffffffffffffffffff1673ffffffffffffffffffffffffffffffffffffffff16146101be576040517f08c379a00000000000000000000000000000000000000000000000000000000081526004016101b590610ac5565b60405180910390fd5b600073ffffffffffffffffffffffffffffffffffffffff1660008054906101000a900473ffffffffffffffffffffffffffffffffffffffff1673ffffffffffffffffffffffffffffffffffffffff167f8be0079c531659141344cd1fd0a4f28419497f9722a3daafe3b4186f6b6457e060405160405180910390a360008060006101000a81548173ffffffffffffffffffffffffffffffffffffffff021916908373ffffffffffffffffffffffffffffffffffffffff160217905550565b600160008154809291906001019190505550600060015490506040518060600160405280858152602001848152602001831515815250600260008381526020019081526020016000206000820151816000015560208201518160010190805190602001906102eb9291906106cb565b5060408201518160020160006101000a81548160ff02191690831515021790555090505050505050565b60008060009054906101000a900473ffffffffffffffffffffffffffffffffffffffff16905090565b6002602052806000526040600020600091509050806000015490806001018054600181600116156101000203166002900480601f0160208091040260200160405190810160405280929190818152602001828054600181600116156101000203166002900480156103f05780601f106103c5576101008083540402835291602001916103f0565b820191906000526020600020905b8154815290600101906020018083116103d357829003601f168201915b5050505050908060020160009054906101000a900460ff16905083565b61041561074b565b6002600083815260200190815260200160002060405180606001604052908160008201548152602001600182018054600181600116156101000203166002900480601f0160208091040260200160405190810160405280929190818152602001828054600181600116156101000203166002900480156104d65780601f106104ab576101008083540402835291602001916104d6565b820191906000526020600020905b8154815290600101906020018083116104b957829003601f168201915b505050505081526020016002820160009054906101000a900460ff1615151515815250509050919050565b6105096106c3565b73ffffffffffffffffffffffffffffffffffffffff1660008054906101000a900473ffffffffffffffffffffffffffffffffffffffff1673ffffffffffffffffffffffffffffffffffffffff1614610596576040517f08c379a000000000000000000000000000000000000000000000000000000000815260040161058d90610ac5565b60405180910390fd5b600073ffffffffffffffffffffffffffffffffffffffff168173ffffffffffffffffffffffffffffffffffffffff161415610606576040517f08c379a00000000000000000000000000000000000000000000000000000000081526004016105fd90610aa5565b60405180910390fd5b8073ffffffffffffffffffffffffffffffffffffffff1660008054906101000a900473ffffffffffffffffffffffffffffffffffffffff1673ffffffffffffffffffffffffffffffffffffffff167f8be0079c531659141344cd1fd0a4f28419497f9722a3daafe3b4186f6b6457e060405160405180910390a3806000806101000a81548173ffffffffffffffffffffffffffffffffffffffff021916908373ffffffffffffffffffffffffffffffffffffffff16021790555050565b600033905090565b828054600181600116156101000203166002900490600052602060002090601f016020900481019282601f1061070c57805160ff191683800117855561073a565b8280016001018555821561073a579182015b8281111561073957825182559160200191906001019061071e565b5b509050610747919061076e565b5090565b604051806060016040528060008152602001606081526020016000151581525090565b5b8082111561078757600081600090555060010161076f565b5090565b60008135905061079a81610c66565b92915050565b6000813590506107af81610c7d565b92915050565b600082601f8301126107c657600080fd5b81356107d96107d482610b72565b610b45565b915080825260208301602083018583830111156107f557600080fd5b610800838284610c13565b50505092915050565b60008135905061081881610c94565b92915050565b60006020828403121561083057600080fd5b600061083e8482850161078b565b91505092915050565b60006020828403121561085957600080fd5b600061086784828501610809565b91505092915050565b60008060006060848603121561088557600080fd5b600061089386828701610809565b935050602084013567ffffffffffffffff8111156108b057600080fd5b6108bc868287016107b5565b92505060406108cd868287016107a0565b9150509250925092565b6108e081610bcb565b82525050565b6108ef81610bdd565b82525050565b6108fe81610bdd565b82525050565b600061090f82610b9e565b6109198185610ba9565b9350610929818560208601610c22565b61093281610c55565b840191505092915050565b600061094882610b9e565b6109528185610bba565b9350610962818560208601610c22565b61096b81610c55565b840191505092915050565b6000610983602683610bba565b91507f4f776e61626c653a206e6577206f776e657220697320746865207a65726f206160008301527f64647265737300000000000000000000000000000000000000000000000000006020830152604082019050919050565b60006109e9602083610bba565b91507f4f776e61626c653a2063616c6c6572206973206e6f7420746865206f776e65726000830152602082019050919050565b6000606083016000830151610a346000860182610a6c565b5060208301518482036020860152610a4c8282610904565b9150506040830151610a6160408601826108e6565b508091505092915050565b610a7581610c09565b82525050565b610a8481610c09565b82525050565b6000602082019050610a9f60008301846108d7565b92915050565b60006020820190508181036000830152610abe81610976565b9050919050565b60006020820190508181036000830152610ade816109dc565b9050919050565b60006020820190508181036000830152610aff8184610a1c565b905092915050565b6000606082019050610b1c6000830186610a7b565b8181036020830152610b2e818561093d565b9050610b3d60408301846108f5565b949350505050565b6000604051905081810181811067ffffffffffffffff82111715610b6857600080fd5b8060405250919050565b600067ffffffffffffffff821115610b8957600080fd5b601f19601f8301169050602081019050919050565b600081519050919050565b600082825260208201905092915050565b600082825260208201905092915050565b6000610bd682610be9565b9050919050565b60008115159050919050565b600073ffffffffffffffffffffffffffffffffffffffff82169050919050565b6000819050919050565b82818337600083830152505050565b60005b83811015610c40578082015181840152602081019050610c25565b83811115610c4f576000848401525b50505050565b6000601f19601f8301169050919050565b610c6f81610bcb565b8114610c7a57600080fd5b50565b610c8681610bdd565b8114610c9157600080fd5b50565b610c9d81610c09565b8114610ca857600080fd5b5056fea26469706673582212207c16b2c287e0fa93a080a9c6be74704857e8c89ac1128c05b67ce7468f9022d764736f6c634300060c0033",
  "immutableReferences": {},
  "source": "// SPDX-License-Identifier: MIT\npragma solidity ^0.6.0;\npragma experimental ABIEncoderV2;\nimport \"@openzeppelin/contracts/access/Ownable.sol\";\n//import \"@openzeppelin/contracts/token/ERC20/ERC20.sol\";\n\ncontract Reservation is Ownable {\n\n    constructor(address owner) public {\n        transferOwnership(owner);\n    }\n\n    struct Info {\n     uint256 no_days;\n     string transport;\n     bool restinclus;\n     }\n    uint counter;\n    mapping (uint256 => Info) public _info;\n   \n   \n    function addReservation(uint256 _no_days, string memory _transport, bool _restinclus) public {\n        counter++;\n        uint _num = counter;\n      // Info res1;\n      // res1.no_days = _no_days;\n      // res1.transport = _transport;\n      // res1.restinclus = _restinclus;\n        _info[_num] = Info(_no_days, _transport, _restinclus);\n    }\n    \n    function getReservation(uint256 _num) public view returns (Info memory) {\n        return _info[_num];\n    }\n \n}",
  "sourcePath": "/Users/itanis/Desktop/projets/web3-truffle/contracts/Reservation.sol",
  "compiler": {
    "name": "solc",
    "version": "0.6.12+commit.27d51765.Emscripten.clang"
  },
  "schemaVersion": "3.3.1",
  "updatedAt": "2020-11-23T14:51:06.447Z",
  "devdoc": {
    "kind": "dev",
    "methods": {
      "owner()": {
        "details": "Returns the address of the current owner."
      },
      "renounceOwnership()": {
        "details": "Leaves the contract without owner. It will not be possible to call `onlyOwner` functions anymore. Can only be called by the current owner. NOTE: Renouncing ownership will leave the contract without an owner, thereby removing any functionality that is only available to the owner."
      },
      "transferOwnership(address)": {
        "details": "Transfers ownership of the contract to a new account (`newOwner`). Can only be called by the current owner."
      }
    },
    "version": 1
  },
  "userdoc": {
    "kind": "user",
    "methods": {},
    "version": 1
  }
}